:020000040800F2
:1000000000400020DD29000851200008532000088E
:100010005520000857200008592000080000000063
:100020000000000000000000000000005B2000084D
:100030005D200008000000005F200008612000082B
:10004000252A0008252A0008252A0008252A000854
:10005000252A0008252A0008252A0008252A000844
:10006000252A0008252A000871200008252A0008F2
:10007000252A0008252A0008252A0008252A000824
:10008000252A0008252A0008252A0008252A000814
:10009000252A0008252A0008252A0008252A000804
:1000A000252A0008252A0008252A0008252A0008F4
:1000B000252A0008252A0008252A0008252A0008E4
:1000C000252A0008252A0008252A0008252A0008D4
:1000D000252A000891200008252A0008252A000862
:1000E000252A0008252A0008252A0008A92000083A
:1000F000C12000080000000000000000252A0008C0
:100100000000000000000000252A0008252A000841
:10011000252A0008252A0008252A000800000000DA
:10012000252A000800000000000000000000000078
:0C01300000000000000000005FF808F173
:10014000034613F8012B002AFBD1181A0138704717
:1001500081F0004102E000BF83F0004330B54FEA78
:1001600041044FEA430594EA050F08BF90EA020FE5
:100170001FBF54EA000C55EA020C7FEA645C7FEA78
:10018000655C00F0E2804FEA5454D4EB5555B8BF9B
:100190006D420CDD2C4480EA020281EA030382EA0C
:1001A000000083EA010180EA020281EA0303362D9E
:1001B00088BF30BD11F0004F4FEA01314FF4801C71
:1001C0004CEA113102D0404261EB410113F0004F83
:1001D0004FEA03334CEA133302D0524263EB43033A
:1001E00094EA050F00F0A780A4F10104D5F1200ED8
:1001F0000DDB02FA0EFC22FA05F2801841F1000133
:1002000003FA0EF2801843FA05F359410EE0A5F106
:1002100020050EF1200E012A03FA0EFC28BF4CF037
:10022000020C43FA05F3C01851EBE37101F00045ED
:1002300007D54FF0000EDCF1000C7EEB00006EEBFA
:100240000101B1F5801F1BD3B1F5001F0CD3490884
:100250005FEA30004FEA3C0C04F101044FEA4452DB
:1002600012F5800F80F09A80BCF1004F08BF5FEA62
:10027000500C50F1000041EB045141EA050130BD42
:100280005FEA4C0C404141EB010111F4801FA4F1E5
:100290000104E9D191F0000F04BF01460020B1FA3A
:1002A00081F308BF2033A3F10B03B3F120020CDA72
:1002B0000C3208DD02F1140CC2F10C0201FA0CF050
:1002C00021FA02F10CE002F11402D8BFC2F1200CB5
:1002D00001FA02F120FA0CFCDCBF41EA0C0190406B
:1002E000E41AA2BF01EB0451294330BD6FEA0404B4
:1002F0001F3C1CDA0C340EDC04F11404C4F120029F
:1003000020FA04F001FA02F340EA030021FA04F3B0
:1003100045EA030130BDC4F10C04C4F1200220FA07
:1003200002F001FA04F340EA0300294630BD21FA45
:1003300004F0294630BD94F0000F83F4801306BF0B
:1003400081F480110134013D4EE77FEA645C18BFFF
:100350007FEA655C29D094EA050F08BF90EA020F96
:1003600005D054EA000C04BF1946104630BD91EA8E
:10037000030F1EBF0021002030BD5FEA545C05D191
:100380004000494128BF41F0004130BD14F58004D0
:100390003CBF01F5801130BD01F0004545F0FE4144
:1003A00041F470014FF0000030BD7FEA645C1ABF79
:1003B000194610467FEA655C1CBF0B46024650EAB0
:1003C000013406BF52EA033591EA030F41F40021DC
:1003D00030BD00BF90F0000F04BF0021704730B562
:1003E0004FF4806404F132044FF000054FF0000137
:1003F00050E700BF90F0000F04BF0021704730B5F8
:100400004FF4806404F1320410F0004548BF4042CC
:100410004FF000013EE700BF42004FEAE2014FEA21
:1004200031014FEA02701FBF12F07F4393F07F4FFC
:1004300081F06051704732F07F4208BF704793F0FF
:100440007F4F04BF41F40021704730B54FF4607412
:1004500001F0004521F000411CE700BF50EA010215
:1004600008BF704730B54FF000050AE050EA0102BE
:1004700008BF704730B511F0004502D5404261EB2E
:1004800041014FF4806404F132045FEA915C3FF46F
:10049000D8AE4FF003025FEADC0C18BF03325FEA0C
:1004A000DC0C18BF033202EBDC02C2F1200300FABD
:1004B00003FC20FA02F001FA03FE40EA0E0021FAE2
:1004C00002F11444BDE600BF70B54FF0FF0C4CF4D0
:1004D000E06C1CEA11541DBF1CEA135594EA0C0F82
:1004E00095EA0C0F00F0DEF82C4481EA030621EABD
:1004F0004C5123EA4C5350EA013518BF52EA0335F8
:1005000041F4801143F4801338D0A0FB02CE4FF0A9
:100510000005E1FB02E506F00042E0FB03E54FF0D9
:100520000006E1FB03569CF0000F18BF4EF0010ED1
:10053000A4F1FF04B6F5007F64F5407404D25FEACD
:100540004E0E6D4146EB060642EAC62141EA555180
:100550004FEAC52040EA5E504FEACE2EB4F1FD0CC2
:1005600088BFBCF5E06F1ED8BEF1004F08BF5FEA40
:10057000500E50F1000041EB045170BD06F00046F2
:1005800046EA010140EA020081EA0301B4EB5C049F
:10059000C2BFD4EB0C0541EA045170BD41F4801197
:1005A0004FF0000E013C00F3AB8014F1360FDEBFBC
:1005B000002001F0004170BDC4F10004203C35DA98
:1005C0000C341BDC04F11404C4F1200500FA05F31B
:1005D00020FA04F001FA05F240EA020001F00042BC
:1005E00021F0004110EBD37021FA04F642EB060132
:1005F0005EEA430E08BF20EAD37070BDC4F10C045C
:10060000C4F1200500FA04F320FA05F001FA04F21F
:1006100040EA020001F0004110EBD37041F100010B
:100620005EEA430E08BF20EAD37070BDC4F1200516
:1006300000FA05F24EEA020E20FA04F301FA05F27E
:1006400043EA020321FA04F001F0004121FA04F226
:1006500020EA020000EBD3705EEA430E08BF20EAF6
:10066000D37070BD94F0000F0FD101F00046400030
:1006700041EB010111F4801F08BF013CF7D041EAB2
:10068000060195F0000F18BF704703F000465200B6
:1006900043EB030313F4801F08BF013DF7D043EA87
:1006A0000603704794EA0C0F0CEA135518BF95EA3D
:1006B0000C0F0CD050EA410618BF52EA4306D1D1C4
:1006C00081EA030101F000414FF0000070BD50EAE3
:1006D000410606BF1046194652EA430619D094EA6D
:1006E0000C0F02D150EA013613D195EA0C0F05D157
:1006F00052EA03361CBF104619460AD181EA0301AB
:1007000001F0004141F0FE4141F470014FF0000062
:1007100070BD41F0FE4141F4780170BD70B54FF0FD
:10072000FF0C4CF4E06C1CEA11541DBF1CEA13557D
:1007300094EA0C0F95EA0C0F00F0A7F8A4EB05045F
:1007400081EA030E52EA03354FEA013100F0888056
:100750004FEA03334FF0805545EA131343EA12631F
:100760004FEA022245EA111545EA10654FEA0026D4
:100770000EF000419D4208BF964244F1FD0404F58D
:10078000407402D25B084FEA3202B61A65EB0305E9
:100790005B084FEA32024FF480104FF4002CB6EBA6
:1007A000020E75EB030E22BFB61A754640EA0C0026
:1007B0005B084FEA3202B6EB020E75EB030E22BF66
:1007C000B61A754640EA5C005B084FEA3202B6EBA7
:1007D000020E75EB030E22BFB61A754640EA9C0066
:1007E0005B084FEA3202B6EB020E75EB030E22BF36
:1007F000B61A754640EADC0055EA060E18D04FEAF4
:10080000051545EA16754FEA06164FEAC30343EA93
:1008100052734FEAC2025FEA1C1CC0D111F4801F60
:100820000BD141EA00014FF000004FF0004CB6E759
:1008300011F4801F04BF01430020B4F1FD0C88BFF8
:10084000BCF5E06F3FF6AFAEB5EB030C04BFB6EB03
:10085000020C5FEA500C50F1000041EB045170BDF6
:100860000EF0004E4EEA113114EB5C04C2BFD4EB23
:100870000C0541EA045170BD41F480114FF0000EA7
:10088000013C90E645EA060E8DE60CEA135594EA23
:100890000C0F08BF95EA0C0F3FF43BAF94EA0C0F26
:1008A0000AD150EA01347FF434AF95EA0C0F7FF49B
:1008B00025AF104619462CE795EA0C0F06D152EAEF
:1008C00003353FF4FDAE1046194622E750EA4106D3
:1008D00018BF52EA43067FF4C5AE50EA41047FF4E4
:1008E0000DAF52EA43057FF4EBAE12E74A0011D296
:1008F00012F5001211D20DD56FF47873B3EB62527A
:100900000ED44FEAC12343F0004343EA505323FA85
:1009100002F070474FF00000704750EA013002D1FA
:100920004FF0FF3070474FF0000070470348044B12
:10093000834202D0034B03B1184770476800002080
:10094000680000200000000005480649091A8910C7
:1009500001EBD171491002D0034B03B11847704726
:1009600068000020680000200000000010B5064C60
:10097000237843B9FFF7DAFF044B13B10448AFF310
:1009800000800123237010BD6800002000000000DB
:10099000D42B000808B5054B1BB105490548AFF33A
:1009A0000080BDE80840FFF7CFBF00BF0000000097
:1009B0006C000020D42B000838B5044601230375D1
:1009C00068B10D461946284602F02EF820602368CB
:1009D0002BB165600023A360E36023612375207D54
:1009E00038BD034618B140681B69C01A7047002023
:1009F00070472DE9F8430446002837D00F461546C6
:100A0000FFF7EFFFA84235D3A26863689A4201D38B
:100A10000023A360D4F80490A668A9EB0608454516
:100A200015D92068A36842463946184402F028F8D0
:100A30002068A6EB09062E44324607EB080102F0B7
:100A40001FF8A66023691D44256100200FE020687F
:100A5000A3682A463946184402F012F8A3682B44CA
:100A6000A36023691D442561002000E0012020755A
:100A7000BDE8F8830420FAE708B100697047002058
:100A800070472DE9F8430446002837D00F46154635
:100A9000FFF7F2FFA84235D3E26863689A4201D3B8
:100AA0000023E360D4F80490E668A9EB0608454506
:100AB00015D32168E36842461944384601F0E0FF47
:100AC0002168A6EB09062E44324607EB080001F028
:100AD000D7FFE66023695D1B256100200FE02168D8
:100AE000E3682A461944384601F0CAFFE3682B44FC
:100AF000E36023695D1B2561002000E00120207573
:100B0000BDE8F8830520FAE708B5034600218160B7
:100B1000C160016100685A6801F0C0FF08BD10B5EE
:100B20000446FFF70DFB0146204600F06BF810BDB0
:100B300008B50248FFF7F3FF08BD00BFEC2B000823
:100B400008B5FFF7ECFFFFF7F3FF08BD08B500F0AD
:100B500059F808BD70B58AB0024600238DF82430DC
:100B6000012901D909A808E00A21FBE73733DBB2E4
:100B700000F8013D96420ED82A460E46B2FBF1F52A
:100B8000D3B205FB01F4E4B21B1BDBB2092BEDD899
:100B90003033DBB2ECE7FFF7C2FF0AB070BD0000F4
:100BA00038B50D46041E04DB29462046FFF7D2FF68
:100BB00038BD0248FFF7B3FF6442F5E7F02B0008A9
:100BC00008B5FFF7EDFFFFF7B3FF08BD08B50A4B07
:100BD0002022C3F8842180210848FFF7EDFE38B9B0
:100BE00001F0AAF9064AD36843F02003D36008BD98
:100BF00000F0DCFEF4E700BF00E100E0940000201C
:100C000000380140F8B507460E4601F065FA00F1DC
:100C10000A0400250FE07A5D0E4B5A600D4B1B68ED
:100C200013F0800F06D101F057FAA042F6D900F078
:100C3000BDFEF3E70135B5420BD2064B1B6813F03E
:100C4000800FE8D101F048FAA042F6D900F0AEFEDC
:100C5000F3E7F8BD0038014000B583B0084B5B688E
:100C60008DF8073001220DF107010648FFF7C1FE9C
:100C700010B903B05DF804FB00F098FEF9E700BF7F
:100C8000003801409400002010B50378672B0FD086
:100C90000446722B09D0622B0DD00848FFF73FFFA6
:100CA0000A212078FFF78CFF01E000F0C7F810BDA3
:100CB00000F0B4F8FBE700F0B9F8F8E7F42B00080F
:100CC00010B504460378443B102B45D8DFE803F009
:100CD00010094444442C4444444444174444444488
:100CE0004100012000F0E4FA012000F0FBFB10BD00
:100CF000002000F0DDFA002000F0F4FBF7E7437875
:100D0000532B09D0582B0BD01748FFF708FF0A21A7
:100D10006078FFF755FFEAE7012000F0C9FAE6E73F
:100D2000002000F0C5FAE2E74378532B09D0582B96
:100D30000BD00E48FFF7F3FE0A216078FFF740FF63
:100D4000D5E7012000F0CEFBD1E7002000F0CAFB80
:100D5000CDE700F073F8CAE70548FFF7E0FE0A2187
:100D60002078FFF72DFFC2E7142C0008402C000864
:100D70006C2C000810B582B01C48FFF77DFEC4B291
:100D8000032C01D802B010BD04220DEB020117485C
:100D9000FFF777FE30BB1648FFF7C1FE214601A8DA
:100DA000FFF7D4FE9DF80430522B0FD0542B12D0F5
:100DB0004C2B06D00F48FFF7C3FE0C48FFF7A4FEEC
:100DC000E0E70DF10500FFF75FFFDBE70DF1050040
:100DD000FFF776FFD6E701220DF105010648FFF780
:100DE00008FECFE7012000F00FF8CBE794000020C9
:100DF0008C2C0008942C0008D80000200AB18161D6
:100E0000704709048161704708B502468021024895
:100E1000FFF7F4FF08BD00BF00080240024A536913
:100E200083F400735361704700080240024A53691B
:100E300083F480735361704700080240024A53698B
:100E400083F080035361704700080240044A002386
:100E50009360D360034A137053601372704700BFEE
:100E600000010020F400002010B50E4B4FF480620A
:100E7000C3F8802103F1C04303F50C5310225A61DB
:100E8000094C002201212046FFF7B8FF0022022171
:100E90002046FFF7B3FF002204212046FFF7AEFFF4
:100EA00010BD00BF00E100E00000024008B50246AE
:100EB0004FF480510148FFF7A1FF08BD0008024030
:100EC00070B50B4BDB687BB905460E46144601F046
:100ED00003F92044064BD8601D605E600122314654
:100EE0002846FFF78BFF70BD0248FFF718FEFAE7B0
:100EF00000010020BC2C000808B50A4BDB6803B9D0
:100F000008BD01F0E9F8074BDB689842F8D30648C2
:100F1000FFF705FE034B0022DA6059681868FFF7F7
:100F20006DFFEDE700010020C42C000808B5144B4C
:100F30001B7883420BD0124B187001221A720138B1
:100F4000042819D8DFE800F00B0F0F1414000C4A26
:100F5000137A013313720B48FFF7E1FD02E0084BEF
:100F600000225A6008BD01F0B7F8054B5860F9E758
:100F7000034B00225A60F5E70348FFF7D0FDF1E785
:100F8000F4000020B42C0008B82C0008214B1B787A
:100F900003B9704710B501F09FF81E4B5B6898428B
:100FA00019D31C4B1B78013B042B29D8DFE803F035
:100FB00003141A2024003C2201211748FFF780FF68
:100FC000144C237A013B23721448FFF7A8FD237ABF
:100FD000D3B90022227010BD3C2202210E48FFF737
:100FE0006FFFEDE73C2204210B48FFF769FFE7E7BD
:100FF0000120FFF75BFFE3E70020FFF757FFDFE784
:101000000748FFF78CFDDBE701F066F8C830014BBD
:101010005860E0E7F400002000000240F02B0008D8
:10102000C02C0008064B00225A621A6842F00102E6
:101030001A60034B1B6813F0010FFAD0704700BF12
:1010400000100040014B00225A627047001000401F
:10105000084B1A6822F001021A6000225A621A68CC
:1010600042F001021A60034B1B6813F0010FFAD023
:10107000704700BF00140040014B00225A627047C5
:101080000014004001FB00F07047000008B5034B5E
:10109000586A0121FFF7F6FF08BD00BF00100040AD
:1010A00008B5044A136823F001031360FFF7EEFF4D
:1010B00008BD00BF0010004008B5054B1A6822F0BB
:1010C00001021A60586A0121FFF7DCFF08BD00BF6A
:1010D0000014004008B5034B586A0121FFF7D2FF06
:1010E00008BD00BF00140040436913F0010FFBD19D
:1010F000704700000000000038B5214B4FF400623B
:10110000C3F884211F4C204601F060F8A068FFF767
:1011100061F919A3D3E90023FFF700FB00221A4B62
:10112000FFF71AF8FFF7E2FB05464FF6FE73984209
:101130001DD8164CA5624FF6FF73E3626FF00105F0
:101140002561E36843F00103E360636943F0010351
:1011500063612046FFF7C8FF2561094B4FF4006229
:10116000C3F88420BFF34F8FBFF36F8F38BD2621A4
:10117000074800F003FDDCE70000000080842E41FA
:1011800000E100E0100100200000F03F00100040EE
:10119000C82C00080000000038B5214B4FF48052E5
:1011A000C3F884211F4C204601F010F8A068FFF717
:1011B00011F919A3D3E90023FFF7B0FA00221A4B63
:1011C000FEF7CAFFFFF792FB05464FF6FE73984203
:1011D0001DD8164CA5624FF6FF73E3626FF0010550
:1011E0002561E36843F00103E360636943F00103B1
:1011F00063612046FFF778FF2561094B4FF4805269
:10120000C3F88420BFF34F8FBFF36F8F38BD7E21AB
:10121000074800F0B3FCDCE70000000080842E41AA
:1012200000E100E0100100200000F03F0014004049
:10123000C82C000808B5064B0822C3F8842100F02A
:1012400083FD044A136843F04003136008BD00BFE8
:1012500000E100E00030014008B510210348FFF72D
:10126000ABFB00B908BD00F0A1FBFBE7D8000020F4
:1012700010B50C4BF4221A7001225A704221997059
:1012800042F208219980DA7100241C72FF229A71BF
:101290000548FFF739FC054B1C705C705C609C6076
:1012A00010BD00BFBC000020D8000020B00000200E
:1012B00008B550B1FFF7DCFF074B01221A7000227E
:1012C0005A705A60FFF7AEFE08BD034B00221A7039
:1012D000FFF7E6FEF8E700BFB0000020074BDB7920
:1012E00053B1064B1B7A2BB16F20C01AC0B2013824
:1012F000C0B270472F20F8E7FE207047BC000020E6
:10130000054BDB7933B1044B1B7A0BB100207047DE
:10131000CC207047BD207047BC000020054BDB7916
:1013200023B1044B1B7A1BB9CC207047DD207047DA
:10133000FF207047BC000020054BDB7923B1044B34
:101340001B7A1BB986207047F7207047FF20704733
:10135000BC000020054BDB7923B1044B1B7A1BB189
:10136000FF207047FF207047B7207047BC00002067
:1013700008B507281FD8DFE800F004070A0D10138E
:1013800016190E4B187808BDFFF7A8FFFBE7FFF70B
:10139000B7FFF8E7FFF7C2FFF5E7FFF7CDFFF2E78A
:1013A000FFF7D8FFEFE7054B9879ECE7034B187888
:1013B00040F00C00E7E7FF20E5E700BFBC0000209D
:1013C00000238B4213D210B4094A926812F0020F24
:1013D000FAD0C45C064A1473054A926812F0020FF0
:1013E000FAD00133DBB28B42EED310BC70477047AA
:1013F0000030014030B583B000238DF807302A4B10
:101400001B780BB903B030BDFFF740FE0446264BF6
:101410005B786BB3244B9B688342F3D8224D2879C9
:10142000FFF7A6FF8DF8070001210DF10700FFF778
:10143000C7FF6B6801336B60082B04D004F5787428
:10144000194B9C60DEE700226A606A70174BDB79FB
:10145000002BD7D0154B1B7A052B03D00133134A31
:101460001372CFE7114B1A72DA71EF229A71C9E742
:101470004CF250339842C5D90B4B01225A700022CE
:101480009A605A600A48FFF7F7FA10B9FFF7DAFDD9
:10149000B8E701220DF107010548FFF7F2FA9DF8C0
:1014A0000720024B1A70F1E7B0000020BC000020BA
:1014B000D800002010B5084B00241C705C705C60E4
:1014C0009C60064A1269C2F300121A73FFF7D4FD3A
:1014D000034B1C7010BD00BFC80000200004024078
:1014E000AC00002010B5044638B1FFF7E3FF044B11
:1014F0001C70044B00221A7010BDFFF7DDFDF6E7EB
:10150000C8000020AC000020014B01221A70704777
:10151000AC000020074A53685B08536020B1536851
:1015200043F0004353607047024A536823F000437E
:1015300053607047C800002038B50546FFF7BCFD72
:101540000A4C0023637023700120FFF75DFC2846DE
:10155000FFF7F6FAA0680A21FFF732FB6068022164
:10156000FFF72EFBFFF7E4FA38BD00BFC8000020EC
:1015700000B583B00838202800F29080DFE800F042
:10158000208E8E8E4E8E8E8E8E8E8E8E8E8E8E8E29
:101590008E8E8A7D8E8E6D5D8E8E8E8E8E8E8E3F21
:1015A00011004048FFF7BBFA3F4B1B788DF8043021
:1015B000012201A93D48FFF71CFA03B05DF804FBC6
:1015C0003B48FFF7ACFA3B4B1B7873B13A48FFF747
:1015D000A6FAF4238DF80430334B8F229A7101223E
:1015E00001A93248FFF705FAE7E73448FFF797FA11
:1015F000B4238DF804302C4BEF229A71EFE730487A
:10160000FFF78DFA34238DF80430012201A9274811
:10161000FFF7EFF9244BCF229A71CEE72948FFF765
:101620007EFAB4238DF80430012201A91F48FFF788
:10163000E0F91D4BAF229A71BFE72348FFF76FFA1D
:10164000194B1B788DF80430012201A91748FFF7C8
:10165000D0F90220FFF76AFCAFE71C48FFF75FFAFA
:10166000114B1B788DF80430012201A90F48FFF7B8
:10167000C0F90320FFF75AFC9FE71548FFF74FFA20
:10168000094B0120D87100221A72FF229A71FFF7CC
:101690004DFC92E70F48FFF742FA8EE70E48FFF73E
:1016A0004BFF8AE7982E0008BC000020D8000020DD
:1016B0009C2E0008B0000020A02E0008A42E0008D8
:1016C000A82E0008AC2E0008B02E0008B42E00088A
:1016D000B82E0008BC2E0008C02E000808B501284E
:1016E00003D00648FFF728FF08BDFFF7B1FC044B05
:1016F00001225A7000225A60F6E700BFE82D000868
:10170000C800002008B598B90B4B9A6842F2341310
:101710009A4209D9084B9A6842F21B539A4203D85D
:10172000054B02225A7002E00448FFF705FF08BD8E
:101730000348FFF701FFFAE7C8000020102E000859
:10174000382E000808B5012812D10B4B9B68B3F561
:101750007A6F09D9084B9A6841F287339A4203D8C5
:10176000054B03225A7006E00448FFF7E5FE02E04D
:101770000348FFF7E1FE08BDC8000020702E0008F6
:10178000382E000808B5012812D0244B5B78DBB254
:10179000032B3FD1214B9B68B3F5F07F36D91F4B0C
:1017A0009B68B3F5207F31D21C4B04225A7034E081
:1017B0001A4B5B78DBB2042B24D1184B9B68B3F532
:1017C000C86F04D9154B9B68B3F5DC6F0DD3134B71
:1017D0009B68B3F5F07F04D9104B9B68B3F5207F6D
:1017E00009D30F48FFF7A8FE17E0FFF793FE0B4B56
:1017F00003225A7011E00020FFF78CFE074B0322F2
:101800005A700AE00748FFF797FE06E00648FFF720
:1018100093FE02E00548FFF78FFE08BDC8000020D8
:10182000DC2C0008142D0008602D00089C2D0008F9
:1018300010B50446104B5B78DBB2052B18D8DFE8F7
:1018400003F0030A0D101013FFF748FF0A4B1C7337
:10185000FFF712FC10BDFFF755FFF7E7FFF772FF28
:10186000F4E7FFF78FFFF1E70448FFF765FEEDE7C8
:101870000348FFF761FEE9E7C8000020642F000875
:101880008C2F000808B5194B1B7813B1184B1B7827
:1018900003B908BDFFF71EFC00221346052B08D82C
:1018A00014490969C1F300110A44D2B20133DBB211
:1018B000F4E7012A0CD9042A0DD90C4B1B7BDBB2AF
:1018C000012B08D0094B98600120FFF7B1FF02E01F
:1018D000064B1B7B1BB9064B00221A70D9E7034B42
:1018E00098600020FFF7A4FFF5E700BFC8000020C4
:1018F000AC00002000040240C043C0B270470000AA
:10190000254B1B7803B970472DE9F04383B0FFF7EF
:10191000E1FB0446204B5B78DBB2042B06D04FF68C
:10192000DC739C4234D803B0BDE8F083B0F5DC6FC3
:10193000F5D9FFF7C1FB184D6E68F6B26F68C7F3B3
:1019400007276B68C3F307496B684FEA1368FFF713
:10195000B1FD01232B70CA2E01D1342F03D00F48C3
:10196000FFF7EAFDDBE74046FFF7C6FF814503D0FE
:101970000B48FFF7E1FDD2E794238DF804300122F4
:1019800001A90848FFF735F84846FFF7F1FDC6E71B
:101990000548FFF7D1FDC6E7C80000200C2F00085E
:1019A000DC2E0008D8000020402F000800BF704740
:1019B00010B5324B1A6842F004021A601A6842F0FD
:1019C00001021A601B6813F0010F54D02C4A1368EF
:1019D00023F4C05343F40063136002F5E432136848
:1019E00043F001031360274B1B6813F0020FFAD07A
:1019F000244B5A6822F4F85242F480525A609A6892
:101A000022F47D0242F488029A601A6842F08072E1
:101A10001A601C4B1B6813F0007FFAD0194B9A68B0
:101A200022F0F0029A609A6822F4E0629A609A6862
:101A300022F4605242F400529A609A6842F0030223
:101A40009A60104B9B6803F00C030C2BF9D10E4CE1
:101A5000204600F0CBFB0D4A136843F004031360EB
:101A6000204600F0D3FB074A936823F0EE4343F08F
:101A70000453936010BDFFF799FFA7E7003C0240B5
:101A800000700040003802400048E80110E000E02B
:101A900010B584B0344B5A6A42F000425A625A6A16
:101AA00002F000420392039A1A6A42F001021A629B
:101AB0001A6A02F001020292029A5A6A42F08052B5
:101AC0005A625B6A03F080530193019B2749CA68FD
:101AD00022F4E0621204120C254B1343CB60FFF793
:101AE00067FF00F04DF800F08BF900F0D7F9214ABC
:101AF000136843F002031360FFF7A8F9FFF7B4F986
:101B0000FFF764F8FFF748FBFFF7F6FAFFF7D2FCA0
:101B1000FFF7A2FBFFF7ACFBFFF78CFB1648FFF7C4
:101B20000FF80120FFF7C2F90120FFF7DBFC0120CD
:101B3000FFF7BEFB00240BE0FFF71CF9FFF75AFC90
:101B4000FFF7A0FEFFF7DCFEFFF720FAFFF7D4F95E
:101B500000F0C2FAA042EFD900F0BEFA00F5FA7424
:101B6000FFF75CF9E8E700BF0038024000ED00E055
:101B70000003FA0510E000E0BC2F0008FEE70000BB
:101B80002DE9F0438DB000240A940B940794089437
:101B90000994674BDA6942F00102DA61DA6902F00E
:101BA00001020392039ADA6942F00402DA61DA6907
:101BB00002F004020292029ADA6942F00202DA6149
:101BC000DB6903F002030193019BDFF874910723A3
:101BD000C9F82830DFF86C814FF49C53C8F82830DE
:101BE0000125049505950226069604A9484600F0AD
:101BF000A1FB0496059506960794089404A9484607
:101C000000F098FB04230493059506960794089426
:101C100004A9484600F08EFB8023049305950696A0
:101C20000794089404A9404600F084FB4FF48077A1
:101C30000497059506960794089404A9404600F079
:101C400079FB4FF400730493059506960794089466
:101C500004A9404600F06EFB0497059603270697FB
:101C600007940894099404A9484600F063FB4FF4D4
:101C700080530493059506960794089404A940465A
:101C800000F058FB2B49CA6822F00F020F2393FA89
:101C9000A3F3B3FA83F305FA03F31343CB6001F51F
:101CA0008231C868102292FAA2F3B3FA83F3AB40F0
:101CB00007FA03F320EA030392FAA2F0CB60086864
:101CC00092FAA2F3B3FA83F3AB4007FA03F320EAE4
:101CD000030392FAA2F00B600A928DF82C508DF853
:101CE0002D408DF82E700AA800F096FA124BDA6893
:101CF000C2F30222C2F10703042B28BF04231946B2
:101D0000131D062B01D9033A00E000224FF0FF33E8
:101D10008B40DB4303F0020393401B01DBB2074A15
:101D200082F80A334FF4806313600DB0BDE8F0838E
:101D3000003802400000014000ED00E000E100E05A
:101D400000000240000802402DE9F04192B0282234
:101D5000002108A800F0A2FE002405940694254B5B
:101D60001A6A42F480521A621A6A02F4805201928C
:101D7000019ADA6942F00102DA61DB6903F00103DA
:101D80000093009B202302934FF00208CDF80C80B3
:101D90000327049705260796174D02A9284600F049
:101DA000C9FA80230293CDF80C8004970594069419
:101DB000079602A9284600F0BDFA08944FF48273F2
:101DC00009930A940B9401230C934FF400730D9321
:101DD00038230E930F9410940A231193074C08A9EB
:101DE000204600F091FB636823F01003636012B09B
:101DF000BDE8F081003802400000024000300140A0
:101E000010B586B0002302930393049305931F4BF0
:101E10005A6A42F010025A625B6A03F0100301939F
:101E2000019B1B4BDA68C2F30222C2F10703042BA9
:101E300028BF04231946131D062B01D9033A00E0DD
:101E400000224FF0FF338B40DB4303F0010393404C
:101E50001B01DBB20F4A82F82B334FF4006353604F
:101E60000023039304930C4C02A9204600F008FCC5
:101E7000236823F080032360636823F070036360AA
:101E8000A36823F08003A36006B010BD00380240B1
:101E900000ED00E000E100E00010004010B586B069
:101EA000002302930393049305931F4B5A6A42F055
:101EB00020025A625B6A03F020030193019B1B4BD3
:101EC000DA68C2F30222C2F10703042B28BF0423FD
:101ED0001946131D062B01D9033A00E000224FF0EA
:101EE000FF338B40DB4303F0010393401B01DBB264
:101EF0000F4A82F82C334FF480535360002303932E
:101F000004930C4C02A9204600F0BAFB236823F08E
:101F100080032360636823F070036360A36823F089
:101F20008003A36006B010BD0038024000ED00E061
:101F300000E100E0001400402DE9F04391B00024DE
:101F400009940A940B940C940D940E940F94069497
:101F50003A4B1A6A42F480421A621A6A02F48042C8
:101F60000292029ADA6942F00102DA61DB6903F057
:101F700001030193019B4FF4007303934FF0020997
:101F8000CDF810904FF00308CDF814800127079783
:101F9000072608962A4D03A9284600F0CBF94FF4EE
:101FA00080630393CDF81090CDF8148006940797C2
:101FB000089603A9284600F0BDF9224BDA68C2F35F
:101FC0000222B31A042B28BF04231946131D062B23
:101FD00001D9033A00E000224FF0FF338B40DB438E
:101FE00003F0030393401B01DBB2174A82F8253349
:101FF000202353604FF4E133099300230A930B939A
:102000000C930C220D920E930F93104C09A92046AD
:1020100000F0B4FB636923F480636361236923F4F4
:1020200090432361636923F02A036361E36843F407
:102030000053E36011B0BDE8F08300BF00380240F8
:102040000000024000ED00E000E100E00038014047
:102050007047FEE7FEE7FEE7FEE770477047704710
:10206000024A136801331360704700BF84000020E8
:1020700008B5064B5B6913F0100F00D108BD034B88
:1020800010225A61FFF740FAF8E700BF0004014050
:1020900008B5044B1B6813F0200F00D108BDFEF7F4
:1020A000DBFDFBE700380140044B1B6913F0010F17
:1020B00003D0024B6FF001021A617047001000401C
:1020C000044B1B6913F0010F03D0024B6FF00102A8
:1020D0001A61704700140040014B1868704700BF38
:1020E00084000020034B9B68C3F30313024AD35CB4
:1020F000D840704700380240E0300008034B9B682E
:10210000C3F30223024AD35CD84070470038024030
:10211000F0300008034B9B68C3F3C223024AD35C30
:10212000D840704700380240F03000080B4B9B68E5
:1021300003F480337BB90A48084A9368C3F38343A6
:102140000849CB5C00FB03F09368C3F38153013370
:10215000B0FBF3F070470448EEE700BF00380240E0
:102160000024F400F830000800366E0108B5144B66
:102170009B6803F00C030C2B16D8DFE803F009155D
:102180001515071515151E15151512000D4815E026
:102190000B4B5868C0F34230431C4FF4004098404A
:1021A0000CE0FFF7C3FF09E0054B5868C0F342306D
:1021B000431C4FF40040984000E0034808BD00BFB6
:1021C000003802400024F40000366E0110B50446C9
:1021D000FFF7CCFF2060FFF785FF6060FFF78EFF01
:1021E000A0606068FFF796FFE06010BD054BA3FBA1
:1021F000003080090138044B586000229A600522A3
:102200001A607047D34D621010E000E0014B186077
:10221000704700BF0000002010B50446036813F0AB
:102220007F4F21D12379012B23D86379022B25D825
:10223000207900286BD0A379032B24D82368002BA6
:1022400071D0607901282DD042B20AB3022834D06F
:102250000120A379002B65D0022B43D0032B4CD057
:10226000012B34D001205DE06D213048FFF786FC62
:10227000D8E76E212D48FFF781FCD6E76F212B4868
:10228000FFF77CFCD4E774212848FFF777FCD5E7FB
:10229000274A516821EA03035360236811680B43FE
:1022A0001360D6E7224A116821EA0303136023680A
:1022B00051680B4353600020CBE71D4A11680B4364
:1022C0001360236851680B4353600020C1E7216805
:1022D000174BDA6822EA0102DA60226899680A4339
:1022E0009A601FE02168124B9A6822EA01029A6004
:1022F0002268D9680A43DA6014E022680C4B9968B6
:102300000A439A602268D9680A43DA600AE02168C1
:10231000074B1A6822EA01021A6021685A6822EA09
:1023200001025A6010BD0020FCE700BFD02F00085A
:1023300000040140F8B507460D46714B984213D092
:1023400003F5806398420FD003F5806398420BD069
:1023500003F58063984207D003F50063984203D0E9
:10236000B9216848FFF70AFC2B68013B4FF6FE7263
:1023700093420BD86B68032B0DD82B69022B0FD817
:102380002E6896FAA6F6B6FA86F640E0BA215D48BF
:10239000FFF7F4FBEEE7BB215A48FFF7EFFBECE752
:1023A000BC215848FFF7EAFBEAE7D0215548FFF780
:1023B000E5FBA968BB6894FAA4F2B2FA82F2520073
:1023C000032000FA02F223EA020394FAA4F2B2FA1A
:1023D00082F2520001FA02F21343BB602969FB68E2
:1023E00094FAA4F2B2FA82F25200032000FA02F246
:1023F00023EA020394FAA4F2B2FA82F2520001FA3A
:1024000002F21343FB606B68022B25D001362B6868
:1024100033FA06F25BD00124B4401C40F6D0696860
:102420003B6894FAA4F2B2FA82F25200032000FA56
:1024300002F223EA020394FAA4F2B2FA82F2520000
:1024400001FA02F213433B606B68013B012BC5D8D4
:10245000AB688342ADD9A8E76B690F2B1BD894FA00
:10246000A4F3B3FA83F3072B1AD869693A6A94FA8A
:10247000A4F3B3FA83F39B000F2000FA03F322EADC
:10248000030294FAA4F3B3FA83F39B0001FA03F373
:1024900013433B62BAE7DC211A48FFF76FFBDEE724
:1024A0006A69796A230A93FAA3F0B0FA80F080008F
:1024B0000F2404FA00F021EA000193FAA3F3B3FA1F
:1024C00083F39B0002FA03F30B437B629EE76B6886
:1024D000013B012B01D90020F8BDEB68012B09D885
:1024E0002968EA687B6823EA010302FB01F21343CF
:1024F0007B60F0E7EF210348FFF740FBF0E700BF08
:10250000000002400830000838B505460C465A4B1A
:1025100098420BD0A3F57843984207D003F5806327
:10252000984203D0B7215548FFF728FB236843B1F1
:10253000B3F5806F05D0B3F5004F02D0B3F5404F2F
:102540005CD16368B3F5827F01D0002B5BD1A368B7
:1025500013B1B3F5006F5BD1E3680BB1022B5CD113
:102560002369012B5ED86369B3F5007F03D013B1F3
:10257000B3F5802F5BD1A3696BB1082B0BD0102B67
:1025800009D0182B07D0202B05D0282B03D0302BB7
:1025900001D0382B50D1E369802B01D0002B50D1D2
:1025A000236AB3F5005F01D0002B4FD12B6813F0E5
:1025B000400F5BD12A6822F47F4222F0BF022368D9
:1025C00061680B43A1680B43E1680B4321690B432E
:1025D00061690B43A1690B43E1690B43216A0B431A
:1025E00013432B606B6823F00403E28A13436B6090
:1025F000236AB3F5005F2ED0002038E0BA211F48CF
:10260000FFF7BCFA9DE7BB211C48FFF7B7FA9EE72E
:10261000BC211A48FFF7B2FA9EE7BD211748FFF721
:10262000ADFA9DE7BE211548FFF7A8FA9BE7BF2149
:102630001248FFF7A3FA9EE7C0211048FFF79EFA61
:10264000A9E7C1210D48FFF799FAA9E7C2210B4874
:10265000FFF794FAAAE7636A1BB1A38C2B610020F1
:1026600005E0E5210548FFF789FAF6E70120EB6967
:1026700023F40063EB6138BD0030014040300008B6
:1026800038B504460D46B0F1804F1ED0394B984204
:102690001BD003F58063984217D003F5006398427E
:1026A00013D003F5806398420FD003F5744398422A
:1026B0000BD003F58063984207D003F580639842FE
:1026C00003D0FA212C48FFF759FA6B683BB1102B65
:1026D00005D0202B03D0402B01D0602B3FD1EB68DD
:1026E0002BB1B3F5807F02D0B3F5007F3CD12368D6
:1026F000B4F1804F0AD01F4A944207D002F580629D
:10270000944203D002F58032944203D123F0700347
:102710006A681343B4F1804F12D0164A94420FD026
:1027200002F5806294420BD002F58032944207D0C9
:1027300002F58062944203D002F58062944203D194
:1027400023F44073EA6813432360AB68E3622B8889
:10275000A362636943F001036361002038BDFB217C
:102760000548FFF70BFABAE7FC210348FFF706FA22
:10277000BDE700BF000400407430000830B585B0EC
:1027800005460C467D4B98420BD0A3F57443984206
:1027900007D003F58063984203D0CF217848FFF734
:1027A000EDF92268774B9A4236D8636813B1B3F5D6
:1027B000805F36D1A368B3F5805F06D02BB1B3F547
:1027C000405F02D0B3F5005F30D1E3682BB1B3F5C1
:1027D000806F02D0B3F5C06F2DD123692BB1042BCC
:1027E00003D0082B01D00C2B2AD1636943B1B3F578
:1027F000807F05D0B3F5007F02D0B3F5407F24D1B0
:10280000A36913B1B3F5004F24D1EB6813F4005F53
:1028100025D0012005B030BDD0215948FFF7AEF9D1
:10282000C3E7D1215648FFF7A9F9C3E7D22154489D
:10283000FFF7A4F9C9E7D3215148FFF79FF9CCE787
:10284000D4214F48FFF79AF9CFE7D5214C48FFF73D
:1028500095F9D5E7D6214A48FFF790F9D5E7EB6817
:1028600023F4164323F00C036268E1680A432169EC
:102870000A43A1690A431343EB60A3682A6922F45F
:10288000405213432B6163696A6922F44072134317
:102890006B616846FFF79AFC384B9D4207D03A4B74
:1028A0009D420BD0394B9D420AD00120B2E7039BD9
:1028B000002B61D022682AB90120ABE7029BF7E721
:1028C000029BF5E7A169B1F5004F27D003EB830325
:1028D00003EB83039200B3FBF2F32D4CA4FB032024
:1028E0004009020191B2642202FB1032130132331B
:1028F000A4FB0323C3F34F1303F0F0020A4492B284
:1029000003F00F0313449BB2AB60AB680F2B26D9C7
:10291000AB68B3F5803F28D200207BE703EB83034D
:1029200003EB83035200B3FBF2F3194CA4FB032027
:102930004009020191B2642202FB1032D30032330B
:10294000A4FB0323C3F34F135A0002F4F8720A44A2
:1029500092B203F0070313449BB2AB60D5E740F299
:1029600025110748FFF70AF9D2E74FF4947104489C
:10297000FFF704F900204DE701204BE70038014044
:10298000A830000800093D00004400400048004015
:102990001F85EB510E4B1A6842F480721A609968D9
:1029A0000C4A0A409A601A6822F0885222F00112FA
:1029B0001A601A6822F480221A609A6822F47D0252
:1029C0009A600022DA60044B4FF000629A60704710
:1029D000003802400CC0FF8800ED00E0002103E059
:1029E0000B4B5B58435004310A480B4B42189A4238
:1029F000F6D30A4A02E0002342F8043B084B9A420D
:102A0000F9D3FFF7C7FF00F017F8FFF741F8704759
:102A10000C31000800000020680000206800002041
:102A200030010020FEE70000024B0A46014618680C
:102A300000F03CB80400002070B500260C4D0D4C91
:102A4000641BA410A64209D100F0C4F800260A4D68
:102A50000A4C641BA410A64205D170BD55F8043B76
:102A600098470136EEE755F8043B98470136F2E700
:102A7000043100080431000804310008083100085E
:102A80000A44914200F1FF3300D1704710B511F8AC
:102A9000014B914203F8014FF9D110BD03460244A6
:102AA000934200D1704703F8011BF9E738B502FBE8
:102AB00001F4214600F008F8054618B1224600212D
:102AC000FFF7ECFF284638BDF8B5CD1C25F003050F
:102AD00008350C2D38BF0C25002D064601DBA94218
:102AE00003D90C2333600020F8BD00F057F82149CA
:102AF0000A6814469CB9204F3B6823B921463046EA
:102B000000F03CF838602946304600F037F8431CA6
:102B100023D10C233046336000F046F8E3E7236806
:102B20005B1B17D40B2B03D923601C44256004E0E6
:102B30006368A2420CBF0B605360304600F034F86B
:102B400004F10B00231D20F00700C21ACCD01B1A81
:102B5000A350C9E722466468CCE7C41C24F00304F0
:102B6000A042E3D0211A304600F008F80130DDD150
:102B7000CFE700BF880000208C00002038B500237C
:102B8000054C05460846236000F016F8431C02D1A8
:102B9000236803B12B6038BD20010020014800F0FC
:102BA00009B800BF28010020014800F004B800BFA8
:102BB0002801002070477047044A05491368002B1C
:102BC00008BF0B461844106018467047900000205C
:102BD00030010020F8B500BFF8BC08BC9E46704725
:0C2BE000F8B500BFF8BC08BC9E4670476A
:102BEC000D0A00002D000000496E76616C696420AE
:102BFC007265636569766564204C454420636F6D2E
:102C0C006D616E643A200000496E76616C696420D7
:102C1C007265636569766564204D4644204D4F535B
:102C2C0049204354524C20636F6D6D616E643A20A1
:102C3C0000000000496E76616C6964207265636502
:102C4C0069766564204D4644204D49534F204354CA
:102C5C00524C20636F6D6D616E643A200000000071
:102C6C00496E76616C69642072656365697665642A
:102C7C00204D464420636F6D6D616E643A200000F8
:102C8C00434D443A2000000021212120496E7661F9
:102C9C006C696420726563656976656420636F6D29
:102CAC006D616E64000000002B0000003F0000000E
:102CBC00730000002100000078000000757365723D
:102CCC002F7372632F74696D6572732E630000002D
:102CDC004552524F523A204C4F572070756C7365C9
:102CEC00206C656E677468206E6F7420696E20723C
:102CFC00616E676520666F72206C6F676963203048
:102D0C00206F7220313A20004552524F523A2048DF
:102D1C00494748207472616E736974696F6E2061E3
:102D2C006E64206E6F742044494E5F444154415F81
:102D3C004C4F5720737461746520697320696E76EB
:102D4C00616C696420636F6D62696E6174696F6E2A
:102D5C003A2000004552524F523A204849474820E9
:102D6C0070756C7365206C656E677468206E6F741B
:102D7C0020696E2072616E676520666F7220444117
:102D8C0054415F782073746174653A200000000030
:102D9C004552524F523A204C4F57207472616E7309
:102DAC006974696F6E20696E206E6F742044494E91
:102DBC005F444154415F48494748207374617465CE
:102DCC0020697320696E76616C696420636F6D6233
:102DDC00696E6174696F6E3A200000004552524F63
:102DEC00523A204C4F57207472616E736974696F3C
:102DFC006E2061742049444C452073746174653AAB
:102E0C00200000004552524F523A20696E76616C98
:102E1C00696420534F4620484947482070756C73AD
:102E2C00652077696474683A200000004552524F5F
:102E3C00523A2048494748207472616E736974692C
:102E4C006F6E2061742053544152545F5345515559
:102E5C00454E43455F484947482073746174653A51
:102E6C00200000004552524F523A20696E76616C38
:102E7C00696420534F46204C4F572070756C736516
:102E8C002077696474683A2000000000300000006C
:102E9C00310000004F00000069000000320000000B
:102EAC003300000034000000350000003600000044
:102EBC0037000000556E6B6E6F776E207265636520
:102ECC0069766564204D49534F20646174612E000E
:102EDC004552524F523A204D49534F206461746110
:102EEC002062797465203320616E64203420617215
:102EFC0065206E6F7420696E7665727465642E0041
:102F0C004552524F523A204D49534F2064617461DF
:102F1C002062797465203120616E642032206172E8
:102F2C0065206E6F742061732065787065637465BD
:102F3C00642E00004552524F523A206D69736F5304
:102F4C00746F7077617463682077696C6C206F762E
:102F5C006572666C6F772E004552524F523A204480
:102F6C00494E5F454F462073746174652073686FDA
:102F7C00756C64206E6F74206F636375722E000025
:102F8C004552524F523A20496E76616C6964206DFD
:102F9C0069736F44617461207374617465206D6131
:102FAC006368696E652073746174652E000000009F
:102FBC0053797374656D20696E697469616C697A93
:102FCC0065642E00447269766572732F53544D33C9
:102FDC00324C3178785F48414C5F44726976657247
:102FEC002F5372632F73746D33326C3178785F6C3E
:102FFC006C5F657874692E6300000000447269761A
:10300C006572732F53544D33324C3178785F48418D
:10301C004C5F4472697665722F5372632F73746DB3
:10302C0033326C3178785F6C6C5F6770696F2E63CC
:10303C0000000000447269766572732F53544D334F
:10304C00324C3178785F48414C5F447269766572D6
:10305C002F5372632F73746D33326C3178785F6CCD
:10306C006C5F7370692E6300447269766572732F9E
:10307C0053544D33324C3178785F48414C5F447235
:10308C00697665722F5372632F73746D33326C31A2
:10309C0078785F6C6C5F74696D2E6300447269762E
:1030AC006572732F53544D33324C3178785F4841ED
:1030BC004C5F4472697665722F5372632F73746D13
:1030CC0033326C3178785F6C6C5F75736172742E0F
:1030DC006300000000000000000000000102030477
:1030EC000607080900000000010203040304060897
:0830FC000C1018203000000048
:043104009509000821
:043108006D09000845
:10310C0068FF1F0008000020000000000000000005
:10311C0000000000000000000000000000000000A3
:10312C000000000000000000000000000000000093
:10313C000000000000000000000000000000000083
:10314C000000000000000000000000000000000073
:10315C000000000000000000000000000000000063
:08316C0000000000000000005B
:04000005080029DDE9
:00000001FF
